{
  "_format": "hh-sol-artifact-1",
  "contractName": "ERC1155Main",
  "sourceName": "contracts/VideoNFTERC1155.sol",
  "abi": [
    {
      "inputs": [],
      "stateMutability": "nonpayable",
      "type": "constructor"
    },
    {
      "anonymous": false,
      "inputs": [
        {
          "indexed": true,
          "internalType": "address",
          "name": "account",
          "type": "address"
        },
        {
          "indexed": true,
          "internalType": "address",
          "name": "operator",
          "type": "address"
        },
        {
          "indexed": false,
          "internalType": "bool",
          "name": "approved",
          "type": "bool"
        }
      ],
      "name": "ApprovalForAll",
      "type": "event"
    },
    {
      "anonymous": false,
      "inputs": [
        {
          "indexed": true,
          "internalType": "address",
          "name": "previousOwner",
          "type": "address"
        },
        {
          "indexed": true,
          "internalType": "address",
          "name": "newOwner",
          "type": "address"
        }
      ],
      "name": "OwnershipTransferred",
      "type": "event"
    },
    {
      "anonymous": false,
      "inputs": [
        {
          "indexed": true,
          "internalType": "address",
          "name": "operator",
          "type": "address"
        },
        {
          "indexed": true,
          "internalType": "address",
          "name": "from",
          "type": "address"
        },
        {
          "indexed": true,
          "internalType": "address",
          "name": "to",
          "type": "address"
        },
        {
          "indexed": false,
          "internalType": "uint256[]",
          "name": "ids",
          "type": "uint256[]"
        },
        {
          "indexed": false,
          "internalType": "uint256[]",
          "name": "values",
          "type": "uint256[]"
        }
      ],
      "name": "TransferBatch",
      "type": "event"
    },
    {
      "anonymous": false,
      "inputs": [
        {
          "indexed": true,
          "internalType": "address",
          "name": "operator",
          "type": "address"
        },
        {
          "indexed": true,
          "internalType": "address",
          "name": "from",
          "type": "address"
        },
        {
          "indexed": true,
          "internalType": "address",
          "name": "to",
          "type": "address"
        },
        {
          "indexed": false,
          "internalType": "uint256",
          "name": "id",
          "type": "uint256"
        },
        {
          "indexed": false,
          "internalType": "uint256",
          "name": "value",
          "type": "uint256"
        }
      ],
      "name": "TransferSingle",
      "type": "event"
    },
    {
      "anonymous": false,
      "inputs": [
        {
          "indexed": false,
          "internalType": "string",
          "name": "value",
          "type": "string"
        },
        {
          "indexed": true,
          "internalType": "uint256",
          "name": "id",
          "type": "uint256"
        }
      ],
      "name": "URI",
      "type": "event"
    },
    {
      "inputs": [
        {
          "internalType": "address",
          "name": "to",
          "type": "address"
        },
        {
          "internalType": "uint256",
          "name": "id",
          "type": "uint256"
        },
        {
          "internalType": "uint256",
          "name": "amount",
          "type": "uint256"
        },
        {
          "internalType": "bytes",
          "name": "data",
          "type": "bytes"
        },
        {
          "internalType": "string",
          "name": "tokenUri",
          "type": "string"
        }
      ],
      "name": "_mint",
      "outputs": [],
      "stateMutability": "nonpayable",
      "type": "function"
    },
    {
      "inputs": [
        {
          "internalType": "address",
          "name": "to",
          "type": "address"
        },
        {
          "internalType": "uint256[]",
          "name": "ids",
          "type": "uint256[]"
        },
        {
          "internalType": "uint256[]",
          "name": "amounts",
          "type": "uint256[]"
        },
        {
          "internalType": "bytes",
          "name": "data",
          "type": "bytes"
        },
        {
          "internalType": "string[]",
          "name": "tokenUrilist",
          "type": "string[]"
        }
      ],
      "name": "_mintBatch",
      "outputs": [],
      "stateMutability": "nonpayable",
      "type": "function"
    },
    {
      "inputs": [
        {
          "internalType": "address",
          "name": "account",
          "type": "address"
        },
        {
          "internalType": "uint256",
          "name": "id",
          "type": "uint256"
        }
      ],
      "name": "balanceOf",
      "outputs": [
        {
          "internalType": "uint256",
          "name": "",
          "type": "uint256"
        }
      ],
      "stateMutability": "view",
      "type": "function"
    },
    {
      "inputs": [
        {
          "internalType": "address[]",
          "name": "accounts",
          "type": "address[]"
        },
        {
          "internalType": "uint256[]",
          "name": "ids",
          "type": "uint256[]"
        }
      ],
      "name": "balanceOfBatch",
      "outputs": [
        {
          "internalType": "uint256[]",
          "name": "",
          "type": "uint256[]"
        }
      ],
      "stateMutability": "view",
      "type": "function"
    },
    {
      "inputs": [
        {
          "internalType": "uint256",
          "name": "_id",
          "type": "uint256"
        },
        {
          "internalType": "uint256",
          "name": "_amount",
          "type": "uint256"
        }
      ],
      "name": "burn",
      "outputs": [],
      "stateMutability": "nonpayable",
      "type": "function"
    },
    {
      "inputs": [
        {
          "internalType": "address",
          "name": "_from",
          "type": "address"
        },
        {
          "internalType": "uint256[]",
          "name": "_ids",
          "type": "uint256[]"
        },
        {
          "internalType": "uint256[]",
          "name": "_amounts",
          "type": "uint256[]"
        }
      ],
      "name": "burnBatch",
      "outputs": [],
      "stateMutability": "nonpayable",
      "type": "function"
    },
    {
      "inputs": [],
      "name": "geUnlockTime",
      "outputs": [
        {
          "internalType": "uint256",
          "name": "",
          "type": "uint256"
        }
      ],
      "stateMutability": "view",
      "type": "function"
    },
    {
      "inputs": [
        {
          "internalType": "address",
          "name": "account",
          "type": "address"
        },
        {
          "internalType": "address",
          "name": "operator",
          "type": "address"
        }
      ],
      "name": "isApprovedForAll",
      "outputs": [
        {
          "internalType": "bool",
          "name": "",
          "type": "bool"
        }
      ],
      "stateMutability": "view",
      "type": "function"
    },
    {
      "inputs": [
        {
          "internalType": "uint256",
          "name": "time",
          "type": "uint256"
        }
      ],
      "name": "lock",
      "outputs": [],
      "stateMutability": "nonpayable",
      "type": "function"
    },
    {
      "inputs": [],
      "name": "owner",
      "outputs": [
        {
          "internalType": "address",
          "name": "",
          "type": "address"
        }
      ],
      "stateMutability": "view",
      "type": "function"
    },
    {
      "inputs": [
        {
          "internalType": "uint256",
          "name": "",
          "type": "uint256"
        }
      ],
      "name": "ownerof",
      "outputs": [
        {
          "internalType": "address",
          "name": "",
          "type": "address"
        }
      ],
      "stateMutability": "view",
      "type": "function"
    },
    {
      "inputs": [],
      "name": "renounceOwnership",
      "outputs": [],
      "stateMutability": "nonpayable",
      "type": "function"
    },
    {
      "inputs": [
        {
          "internalType": "address",
          "name": "from",
          "type": "address"
        },
        {
          "internalType": "address",
          "name": "to",
          "type": "address"
        },
        {
          "internalType": "uint256[]",
          "name": "ids",
          "type": "uint256[]"
        },
        {
          "internalType": "uint256[]",
          "name": "amounts",
          "type": "uint256[]"
        },
        {
          "internalType": "bytes",
          "name": "data",
          "type": "bytes"
        }
      ],
      "name": "safeBatchTransferFrom",
      "outputs": [],
      "stateMutability": "nonpayable",
      "type": "function"
    },
    {
      "inputs": [
        {
          "internalType": "address",
          "name": "from",
          "type": "address"
        },
        {
          "internalType": "address",
          "name": "to",
          "type": "address"
        },
        {
          "internalType": "uint256",
          "name": "id",
          "type": "uint256"
        },
        {
          "internalType": "uint256",
          "name": "amount",
          "type": "uint256"
        },
        {
          "internalType": "bytes",
          "name": "data",
          "type": "bytes"
        }
      ],
      "name": "safeTransferFrom",
      "outputs": [],
      "stateMutability": "nonpayable",
      "type": "function"
    },
    {
      "inputs": [
        {
          "internalType": "address",
          "name": "operator",
          "type": "address"
        },
        {
          "internalType": "bool",
          "name": "approved",
          "type": "bool"
        }
      ],
      "name": "setApprovalForAll",
      "outputs": [],
      "stateMutability": "nonpayable",
      "type": "function"
    },
    {
      "inputs": [
        {
          "internalType": "bytes4",
          "name": "interfaceId",
          "type": "bytes4"
        }
      ],
      "name": "supportsInterface",
      "outputs": [
        {
          "internalType": "bool",
          "name": "",
          "type": "bool"
        }
      ],
      "stateMutability": "view",
      "type": "function"
    },
    {
      "inputs": [
        {
          "internalType": "uint256",
          "name": "tokenId",
          "type": "uint256"
        }
      ],
      "name": "tokenURI",
      "outputs": [
        {
          "internalType": "string",
          "name": "",
          "type": "string"
        }
      ],
      "stateMutability": "view",
      "type": "function"
    },
    {
      "inputs": [],
      "name": "totalSupply",
      "outputs": [
        {
          "internalType": "uint256",
          "name": "",
          "type": "uint256"
        }
      ],
      "stateMutability": "view",
      "type": "function"
    },
    {
      "inputs": [
        {
          "internalType": "address",
          "name": "newOwner",
          "type": "address"
        }
      ],
      "name": "transferOwnership",
      "outputs": [],
      "stateMutability": "nonpayable",
      "type": "function"
    },
    {
      "inputs": [],
      "name": "unlock",
      "outputs": [],
      "stateMutability": "nonpayable",
      "type": "function"
    },
    {
      "inputs": [
        {
          "internalType": "uint256",
          "name": "tokenId",
          "type": "uint256"
        }
      ],
      "name": "uri",
      "outputs": [
        {
          "internalType": "string",
          "name": "",
          "type": "string"
        }
      ],
      "stateMutability": "view",
      "type": "function"
    }
  ],
  "bytecode": "0x608060405260006007553480156200001657600080fd5b50600062000029620000cd60201b60201c565b9050806000806101000a81548173ffffffffffffffffffffffffffffffffffffffff021916908373ffffffffffffffffffffffffffffffffffffffff1602179055508073ffffffffffffffffffffffffffffffffffffffff16600073ffffffffffffffffffffffffffffffffffffffff167f8be0079c531659141344cd1fd0a4f28419497f9722a3daafe3b4186f6b6457e060405160405180910390a350620000d5565b600033905090565b61473580620000e56000396000f3fe608060405234801561001057600080fd5b50600436106101365760003560e01c8063a22cb465116100b8578063c87b56dd1161007c578063c87b56dd14610325578063dd46706414610355578063e985e9c514610371578063f242432a146103a1578063f2fde38b146103bd578063fe5830e2146103d957610136565b8063a22cb46514610295578063a69df4b5146102b1578063b390c0ab146102bb578063b6c52324146102d7578063bdebb525146102f557610136565b80632eb2c2d6116100ff5780632eb2c2d6146102055780634e1273f4146102215780636b20c45414610251578063715018a61461026d5780638da5cb5b1461027757610136565b8062fdd58e1461013b57806301ffc9a71461016b5780630e89341c1461019b57806318160ddd146101cb5780631b00f5de146101e9575b600080fd5b61015560048036038101906101509190612bd4565b6103f5565b6040516101629190612c23565b60405180910390f35b61018560048036038101906101809190612c96565b6104be565b6040516101929190612cde565b60405180910390f35b6101b560048036038101906101b09190612cf9565b6105a0565b6040516101c29190612dbf565b60405180910390f35b6101d36105b2565b6040516101e09190612c23565b60405180910390f35b61020360048036038101906101fe9190613160565b6105bc565b005b61021f600480360381019061021a919061324b565b610a33565b005b61023b600480360381019061023691906133dd565b610ad4565b6040516102489190613513565b60405180910390f35b61026b60048036038101906102669190613535565b610bed565b005b610275610bfd565b005b61027f610d50565b60405161028c91906135cf565b60405180910390f35b6102af60048036038101906102aa9190613616565b610d79565b005b6102b9610d8f565b005b6102d560048036038101906102d09190613656565b610f63565b005b6102df610f79565b6040516102ec9190612c23565b60405180910390f35b61030f600480360381019061030a9190612cf9565b610f83565b60405161031c91906135cf565b60405180910390f35b61033f600480360381019061033a9190612cf9565b610fb6565b60405161034c9190612dbf565b60405180910390f35b61036f600480360381019061036a9190612cf9565b610fc8565b005b61038b60048036038101906103869190613696565b61118f565b6040516103989190612cde565b60405180910390f35b6103bb60048036038101906103b691906136d6565b611223565b005b6103d760048036038101906103d2919061376d565b6112c4565b005b6103f360048036038101906103ee919061379a565b611485565b005b60008073ffffffffffffffffffffffffffffffffffffffff168373ffffffffffffffffffffffffffffffffffffffff1603610465576040517f08c379a000000000000000000000000000000000000000000000000000000000815260040161045c906138bf565b60405180910390fd5b6003600083815260200190815260200160002060008473ffffffffffffffffffffffffffffffffffffffff1673ffffffffffffffffffffffffffffffffffffffff16815260200190815260200160002054905092915050565b60007fd9b67a26000000000000000000000000000000000000000000000000000000007bffffffffffffffffffffffffffffffffffffffffffffffffffffffff1916827bffffffffffffffffffffffffffffffffffffffffffffffffffffffff1916148061058957507f0e89341c000000000000000000000000000000000000000000000000000000007bffffffffffffffffffffffffffffffffffffffffffffffffffffffff1916827bffffffffffffffffffffffffffffffffffffffffffffffffffffffff1916145b806105995750610598826117f5565b5b9050919050565b60606105ab8261185f565b9050919050565b6000600754905090565b6105c4611904565b73ffffffffffffffffffffffffffffffffffffffff1660008054906101000a900473ffffffffffffffffffffffffffffffffffffffff1673ffffffffffffffffffffffffffffffffffffffff1614610651576040517f08c379a00000000000000000000000000000000000000000000000000000000081526004016106489061392b565b60405180910390fd5b600073ffffffffffffffffffffffffffffffffffffffff168573ffffffffffffffffffffffffffffffffffffffff16036106c0576040517f08c379a00000000000000000000000000000000000000000000000000000000081526004016106b7906139bd565b60405180910390fd5b8251845114610704576040517f08c379a00000000000000000000000000000000000000000000000000000000081526004016106fb90613a4f565b60405180910390fd5b60005b845181101561078a57600061073586838151811061072857610727613a6f565b5b602002602001015161185f565b511115610777576040517f08c379a000000000000000000000000000000000000000000000000000000000815260040161076e90613aea565b60405180910390fd5b808061078290613b39565b915050610707565b5060005b83518110156108075760018482815181106107ac576107ab613a6f565b5b6020026020010151146107f4576040517f08c379a00000000000000000000000000000000000000000000000000000000081526004016107eb90613bcd565b60405180910390fd5b80806107ff90613b39565b91505061078e565b506000610812611904565b90506108238160008888888861190c565b60005b85518110156109875784818151811061084257610841613a6f565b5b60200260200101516003600088848151811061086157610860613a6f565b5b6020026020010151815260200190815260200160002060008973ffffffffffffffffffffffffffffffffffffffff1673ffffffffffffffffffffffffffffffffffffffff16815260200190815260200160002060008282546108c39190613bed565b9250508190555086600960008884815181106108e2576108e1613a6f565b5b6020026020010151815260200190815260200160002060006101000a81548173ffffffffffffffffffffffffffffffffffffffff021916908373ffffffffffffffffffffffffffffffffffffffff16021790555061097486828151811061094c5761094b613a6f565b5b602002602001015184838151811061096757610966613a6f565b5b6020026020010151611914565b808061097f90613b39565b915050610826565b508573ffffffffffffffffffffffffffffffffffffffff16600073ffffffffffffffffffffffffffffffffffffffff168273ffffffffffffffffffffffffffffffffffffffff167f4a39dc06d4c0dbc64b70af90fd698a233a518aa5d07e595d983b8c0526c8f7fb88886040516109ff929190613c43565b60405180910390a4610a1681600088888888611940565b8351600754610a259190613bed565b600781905550505050505050565b610a3b611904565b73ffffffffffffffffffffffffffffffffffffffff168573ffffffffffffffffffffffffffffffffffffffff161480610a815750610a8085610a7b611904565b61118f565b5b610ac0576040517f08c379a0000000000000000000000000000000000000000000000000000000008152600401610ab790613cec565b60405180910390fd5b610acd8585858585611b17565b5050505050565b60608151835114610b1a576040517f08c379a0000000000000000000000000000000000000000000000000000000008152600401610b1190613d7e565b60405180910390fd5b6000835167ffffffffffffffff811115610b3757610b36612de6565b5b604051908082528060200260200182016040528015610b655781602001602082028036833780820191505090505b50905060005b8451811015610be257610bb2858281518110610b8a57610b89613a6f565b5b6020026020010151858381518110610ba557610ba4613a6f565b5b60200260200101516103f5565b828281518110610bc557610bc4613a6f565b5b60200260200101818152505080610bdb90613b39565b9050610b6b565b508091505092915050565b610bf8838383611e7f565b505050565b610c05611904565b73ffffffffffffffffffffffffffffffffffffffff1660008054906101000a900473ffffffffffffffffffffffffffffffffffffffff1673ffffffffffffffffffffffffffffffffffffffff1614610c92576040517f08c379a0000000000000000000000000000000000000000000000000000000008152600401610c899061392b565b60405180910390fd5b600073ffffffffffffffffffffffffffffffffffffffff1660008054906101000a900473ffffffffffffffffffffffffffffffffffffffff1673ffffffffffffffffffffffffffffffffffffffff167f8be0079c531659141344cd1fd0a4f28419497f9722a3daafe3b4186f6b6457e060405160405180910390a360008060006101000a81548173ffffffffffffffffffffffffffffffffffffffff021916908373ffffffffffffffffffffffffffffffffffffffff160217905550565b60008060009054906101000a900473ffffffffffffffffffffffffffffffffffffffff16905090565b610d8b610d84611904565b8383612146565b5050565b3373ffffffffffffffffffffffffffffffffffffffff16600160009054906101000a900473ffffffffffffffffffffffffffffffffffffffff1673ffffffffffffffffffffffffffffffffffffffff1614610e1f576040517f08c379a0000000000000000000000000000000000000000000000000000000008152600401610e1690613e10565b60405180910390fd5b6002544211610e63576040517f08c379a0000000000000000000000000000000000000000000000000000000008152600401610e5a90613e7c565b60405180910390fd5b600160009054906101000a900473ffffffffffffffffffffffffffffffffffffffff1673ffffffffffffffffffffffffffffffffffffffff1660008054906101000a900473ffffffffffffffffffffffffffffffffffffffff1673ffffffffffffffffffffffffffffffffffffffff167f8be0079c531659141344cd1fd0a4f28419497f9722a3daafe3b4186f6b6457e060405160405180910390a3600160009054906101000a900473ffffffffffffffffffffffffffffffffffffffff166000806101000a81548173ffffffffffffffffffffffffffffffffffffffff021916908373ffffffffffffffffffffffffffffffffffffffff160217905550565b610f75610f6e6122b2565b83836122ba565b5050565b6000600254905090565b60096020528060005260406000206000915054906101000a900473ffffffffffffffffffffffffffffffffffffffff1681565b6060610fc18261185f565b9050919050565b610fd0611904565b73ffffffffffffffffffffffffffffffffffffffff1660008054906101000a900473ffffffffffffffffffffffffffffffffffffffff1673ffffffffffffffffffffffffffffffffffffffff161461105d576040517f08c379a00000000000000000000000000000000000000000000000000000000081526004016110549061392b565b60405180910390fd5b60008054906101000a900473ffffffffffffffffffffffffffffffffffffffff16600160006101000a81548173ffffffffffffffffffffffffffffffffffffffff021916908373ffffffffffffffffffffffffffffffffffffffff16021790555060008060006101000a81548173ffffffffffffffffffffffffffffffffffffffff021916908373ffffffffffffffffffffffffffffffffffffffff160217905550804261110b9190613bed565b600281905550600073ffffffffffffffffffffffffffffffffffffffff1660008054906101000a900473ffffffffffffffffffffffffffffffffffffffff1673ffffffffffffffffffffffffffffffffffffffff167f8be0079c531659141344cd1fd0a4f28419497f9722a3daafe3b4186f6b6457e060405160405180910390a350565b6000600560008473ffffffffffffffffffffffffffffffffffffffff1673ffffffffffffffffffffffffffffffffffffffff16815260200190815260200160002060008373ffffffffffffffffffffffffffffffffffffffff1673ffffffffffffffffffffffffffffffffffffffff16815260200190815260200160002060009054906101000a900460ff16905092915050565b61122b611904565b73ffffffffffffffffffffffffffffffffffffffff168573ffffffffffffffffffffffffffffffffffffffff16148061127157506112708561126b611904565b61118f565b5b6112b0576040517f08c379a00000000000000000000000000000000000000000000000000000000081526004016112a790613f0e565b60405180910390fd5b6112bd858585858561253f565b5050505050565b6112cc611904565b73ffffffffffffffffffffffffffffffffffffffff1660008054906101000a900473ffffffffffffffffffffffffffffffffffffffff1673ffffffffffffffffffffffffffffffffffffffff1614611359576040517f08c379a00000000000000000000000000000000000000000000000000000000081526004016113509061392b565b60405180910390fd5b600073ffffffffffffffffffffffffffffffffffffffff168173ffffffffffffffffffffffffffffffffffffffff16036113c8576040517f08c379a00000000000000000000000000000000000000000000000000000000081526004016113bf90613fa0565b60405180910390fd5b8073ffffffffffffffffffffffffffffffffffffffff1660008054906101000a900473ffffffffffffffffffffffffffffffffffffffff1673ffffffffffffffffffffffffffffffffffffffff167f8be0079c531659141344cd1fd0a4f28419497f9722a3daafe3b4186f6b6457e060405160405180910390a3806000806101000a81548173ffffffffffffffffffffffffffffffffffffffff021916908373ffffffffffffffffffffffffffffffffffffffff16021790555050565b61148d611904565b73ffffffffffffffffffffffffffffffffffffffff1660008054906101000a900473ffffffffffffffffffffffffffffffffffffffff1673ffffffffffffffffffffffffffffffffffffffff161461151a576040517f08c379a00000000000000000000000000000000000000000000000000000000081526004016115119061392b565b60405180910390fd5b600073ffffffffffffffffffffffffffffffffffffffff168573ffffffffffffffffffffffffffffffffffffffff1603611589576040517f08c379a0000000000000000000000000000000000000000000000000000000008152600401611580906139bd565b60405180910390fd5b60008151116115cd576040517f08c379a00000000000000000000000000000000000000000000000000000000081526004016115c49061400c565b60405180910390fd5b60006115d88561185f565b51111561161a576040517f08c379a000000000000000000000000000000000000000000000000000000000815260040161161190613aea565b60405180910390fd5b6001831461165d576040517f08c379a000000000000000000000000000000000000000000000000000000000815260040161165490613bcd565b60405180910390fd5b6000611667611904565b90506116888160008861167989612815565b61168289612815565b8861190c565b836003600087815260200190815260200160002060008873ffffffffffffffffffffffffffffffffffffffff1673ffffffffffffffffffffffffffffffffffffffff16815260200190815260200160002060008282546116e89190613bed565b92505081905550856009600087815260200190815260200160002060006101000a81548173ffffffffffffffffffffffffffffffffffffffff021916908373ffffffffffffffffffffffffffffffffffffffff16021790555061174b8583611914565b8573ffffffffffffffffffffffffffffffffffffffff16600073ffffffffffffffffffffffffffffffffffffffff168273ffffffffffffffffffffffffffffffffffffffff167fc3d58168c5ae7397731d063d5bbf3d657854427343f4c083240f7aacaa2d0f6288886040516117c292919061402c565b60405180910390a46117d98160008888888861288f565b836007546117e79190613bed565b600781905550505050505050565b60007f01ffc9a7000000000000000000000000000000000000000000000000000000007bffffffffffffffffffffffffffffffffffffffffffffffffffffffff1916827bffffffffffffffffffffffffffffffffffffffffffffffffffffffff1916149050919050565b606060086000838152602001908152602001600020805461187f90614084565b80601f01602080910402602001604051908101604052809291908181526020018280546118ab90614084565b80156118f85780601f106118cd576101008083540402835291602001916118f8565b820191906000526020600020905b8154815290600101906020018083116118db57829003601f168201915b50505050509050919050565b600033905090565b505050505050565b8060086000848152602001908152602001600020908051906020019061193b929190612a89565b505050565b61195f8473ffffffffffffffffffffffffffffffffffffffff16612a66565b15611b0f578373ffffffffffffffffffffffffffffffffffffffff1663bc197c8187878686866040518663ffffffff1660e01b81526004016119a595949392919061410a565b6020604051808303816000875af19250505080156119e157506040513d601f19601f820116820180604052508101906119de9190614187565b60015b611a86576119ed6141c1565b806308c379a003611a495750611a016141e3565b80611a0c5750611a4b565b806040517f08c379a0000000000000000000000000000000000000000000000000000000008152600401611a409190612dbf565b60405180910390fd5b505b6040517f08c379a0000000000000000000000000000000000000000000000000000000008152600401611a7d906142e5565b60405180910390fd5b63bc197c8160e01b7bffffffffffffffffffffffffffffffffffffffffffffffffffffffff1916817bffffffffffffffffffffffffffffffffffffffffffffffffffffffff191614611b0d576040517f08c379a0000000000000000000000000000000000000000000000000000000008152600401611b0490614377565b60405180910390fd5b505b505050505050565b8151835114611b5b576040517f08c379a0000000000000000000000000000000000000000000000000000000008152600401611b5290613a4f565b60405180910390fd5b600073ffffffffffffffffffffffffffffffffffffffff168473ffffffffffffffffffffffffffffffffffffffff1603611bca576040517f08c379a0000000000000000000000000000000000000000000000000000000008152600401611bc190614409565b60405180910390fd5b6000611bd4611904565b9050611be481878787878761190c565b60005b8451811015611dea576000858281518110611c0557611c04613a6f565b5b602002602001015190506000858381518110611c2457611c23613a6f565b5b6020026020010151905060006003600084815260200190815260200160002060008b73ffffffffffffffffffffffffffffffffffffffff1673ffffffffffffffffffffffffffffffffffffffff16815260200190815260200160002054905081811015611cc6576040517f08c379a0000000000000000000000000000000000000000000000000000000008152600401611cbd9061449b565b60405180910390fd5b8181036003600085815260200190815260200160002060008c73ffffffffffffffffffffffffffffffffffffffff1673ffffffffffffffffffffffffffffffffffffffff16815260200190815260200160002081905550816003600085815260200190815260200160002060008b73ffffffffffffffffffffffffffffffffffffffff1673ffffffffffffffffffffffffffffffffffffffff1681526020019081526020016000206000828254611d7d9190613bed565b92505081905550886009600085815260200190815260200160002060006101000a81548173ffffffffffffffffffffffffffffffffffffffff021916908373ffffffffffffffffffffffffffffffffffffffff16021790555050505080611de390613b39565b9050611be7565b508473ffffffffffffffffffffffffffffffffffffffff168673ffffffffffffffffffffffffffffffffffffffff168273ffffffffffffffffffffffffffffffffffffffff167f4a39dc06d4c0dbc64b70af90fd698a233a518aa5d07e595d983b8c0526c8f7fb8787604051611e61929190613c43565b60405180910390a4611e77818787878787611940565b505050505050565b600073ffffffffffffffffffffffffffffffffffffffff168373ffffffffffffffffffffffffffffffffffffffff1603611eee576040517f08c379a0000000000000000000000000000000000000000000000000000000008152600401611ee59061452d565b60405180910390fd5b8051825114611f32576040517f08c379a0000000000000000000000000000000000000000000000000000000008152600401611f2990613a4f565b60405180910390fd5b6000611f3c611904565b9050611f5c8185600086866040518060200160405280600081525061190c565b60005b83518110156120ab576000848281518110611f7d57611f7c613a6f565b5b602002602001015190506000848381518110611f9c57611f9b613a6f565b5b6020026020010151905060006003600084815260200190815260200160002060008973ffffffffffffffffffffffffffffffffffffffff1673ffffffffffffffffffffffffffffffffffffffff1681526020019081526020016000205490508181101561203e576040517f08c379a0000000000000000000000000000000000000000000000000000000008152600401612035906145bf565b60405180910390fd5b8181036003600085815260200190815260200160002060008a73ffffffffffffffffffffffffffffffffffffffff1673ffffffffffffffffffffffffffffffffffffffff1681526020019081526020016000208190555050505080806120a390613b39565b915050611f5f565b5081516007546120bb91906145df565b600781905550600073ffffffffffffffffffffffffffffffffffffffff168473ffffffffffffffffffffffffffffffffffffffff168273ffffffffffffffffffffffffffffffffffffffff167f4a39dc06d4c0dbc64b70af90fd698a233a518aa5d07e595d983b8c0526c8f7fb8686604051612138929190613c43565b60405180910390a450505050565b8173ffffffffffffffffffffffffffffffffffffffff168373ffffffffffffffffffffffffffffffffffffffff16036121b4576040517f08c379a00000000000000000000000000000000000000000000000000000000081526004016121ab90614685565b60405180910390fd5b80600560008573ffffffffffffffffffffffffffffffffffffffff1673ffffffffffffffffffffffffffffffffffffffff16815260200190815260200160002060008473ffffffffffffffffffffffffffffffffffffffff1673ffffffffffffffffffffffffffffffffffffffff16815260200190815260200160002060006101000a81548160ff0219169083151502179055508173ffffffffffffffffffffffffffffffffffffffff168373ffffffffffffffffffffffffffffffffffffffff167f17307eab39ab6107e8899845ad3d59bd9653f200f220920489ca2b5937696c31836040516122a59190612cde565b60405180910390a3505050565b600033905090565b600073ffffffffffffffffffffffffffffffffffffffff168373ffffffffffffffffffffffffffffffffffffffff1603612329576040517f08c379a00000000000000000000000000000000000000000000000000000000081526004016123209061452d565b60405180910390fd5b6000612333611904565b90506123638185600061234587612815565b61234e87612815565b6040518060200160405280600081525061190c565b60006003600085815260200190815260200160002060008673ffffffffffffffffffffffffffffffffffffffff1673ffffffffffffffffffffffffffffffffffffffff168152602001908152602001600020549050828110156123fb576040517f08c379a00000000000000000000000000000000000000000000000000000000081526004016123f2906145bf565b60405180910390fd5b8281036003600086815260200190815260200160002060008773ffffffffffffffffffffffffffffffffffffffff1673ffffffffffffffffffffffffffffffffffffffff1681526020019081526020016000208190555060006009600086815260200190815260200160002060006101000a81548173ffffffffffffffffffffffffffffffffffffffff021916908373ffffffffffffffffffffffffffffffffffffffff160217905550826007546124b391906145df565b600781905550600073ffffffffffffffffffffffffffffffffffffffff168573ffffffffffffffffffffffffffffffffffffffff168373ffffffffffffffffffffffffffffffffffffffff167fc3d58168c5ae7397731d063d5bbf3d657854427343f4c083240f7aacaa2d0f62878760405161253092919061402c565b60405180910390a45050505050565b600073ffffffffffffffffffffffffffffffffffffffff168473ffffffffffffffffffffffffffffffffffffffff16036125ae576040517f08c379a00000000000000000000000000000000000000000000000000000000081526004016125a590614409565b60405180910390fd5b60006125b8611904565b90506125d88187876125c988612815565b6125d288612815565b8761190c565b60006003600086815260200190815260200160002060008873ffffffffffffffffffffffffffffffffffffffff1673ffffffffffffffffffffffffffffffffffffffff16815260200190815260200160002054905083811015612670576040517f08c379a00000000000000000000000000000000000000000000000000000000081526004016126679061449b565b60405180910390fd5b8381036003600087815260200190815260200160002060008973ffffffffffffffffffffffffffffffffffffffff1673ffffffffffffffffffffffffffffffffffffffff16815260200190815260200160002081905550836003600087815260200190815260200160002060008873ffffffffffffffffffffffffffffffffffffffff1673ffffffffffffffffffffffffffffffffffffffff16815260200190815260200160002060008282546127279190613bed565b92505081905550856009600087815260200190815260200160002060006101000a81548173ffffffffffffffffffffffffffffffffffffffff021916908373ffffffffffffffffffffffffffffffffffffffff1602179055508573ffffffffffffffffffffffffffffffffffffffff168773ffffffffffffffffffffffffffffffffffffffff168373ffffffffffffffffffffffffffffffffffffffff167fc3d58168c5ae7397731d063d5bbf3d657854427343f4c083240f7aacaa2d0f6288886040516127f692919061402c565b60405180910390a461280c82888888888861288f565b50505050505050565b60606000600167ffffffffffffffff81111561283457612833612de6565b5b6040519080825280602002602001820160405280156128625781602001602082028036833780820191505090505b509050828160008151811061287a57612879613a6f565b5b60200260200101818152505080915050919050565b6128ae8473ffffffffffffffffffffffffffffffffffffffff16612a66565b15612a5e578373ffffffffffffffffffffffffffffffffffffffff1663f23a6e6187878686866040518663ffffffff1660e01b81526004016128f49594939291906146a5565b6020604051808303816000875af192505050801561293057506040513d601f19601f8201168201806040525081019061292d9190614187565b60015b6129d55761293c6141c1565b806308c379a00361299857506129506141e3565b8061295b575061299a565b806040517f08c379a000000000000000000000000000000000000000000000000000000000815260040161298f9190612dbf565b60405180910390fd5b505b6040517f08c379a00000000000000000000000000000000000000000000000000000000081526004016129cc906142e5565b60405180910390fd5b63f23a6e6160e01b7bffffffffffffffffffffffffffffffffffffffffffffffffffffffff1916817bffffffffffffffffffffffffffffffffffffffffffffffffffffffff191614612a5c576040517f08c379a0000000000000000000000000000000000000000000000000000000008152600401612a5390614377565b60405180910390fd5b505b505050505050565b6000808273ffffffffffffffffffffffffffffffffffffffff163b119050919050565b828054612a9590614084565b90600052602060002090601f016020900481019282612ab75760008555612afe565b82601f10612ad057805160ff1916838001178555612afe565b82800160010185558215612afe579182015b82811115612afd578251825591602001919060010190612ae2565b5b509050612b0b9190612b0f565b5090565b5b80821115612b28576000816000905550600101612b10565b5090565b6000604051905090565b600080fd5b600080fd5b600073ffffffffffffffffffffffffffffffffffffffff82169050919050565b6000612b6b82612b40565b9050919050565b612b7b81612b60565b8114612b8657600080fd5b50565b600081359050612b9881612b72565b92915050565b6000819050919050565b612bb181612b9e565b8114612bbc57600080fd5b50565b600081359050612bce81612ba8565b92915050565b60008060408385031215612beb57612bea612b36565b5b6000612bf985828601612b89565b9250506020612c0a85828601612bbf565b9150509250929050565b612c1d81612b9e565b82525050565b6000602082019050612c386000830184612c14565b92915050565b60007fffffffff0000000000000000000000000000000000000000000000000000000082169050919050565b612c7381612c3e565b8114612c7e57600080fd5b50565b600081359050612c9081612c6a565b92915050565b600060208284031215612cac57612cab612b36565b5b6000612cba84828501612c81565b91505092915050565b60008115159050919050565b612cd881612cc3565b82525050565b6000602082019050612cf36000830184612ccf565b92915050565b600060208284031215612d0f57612d0e612b36565b5b6000612d1d84828501612bbf565b91505092915050565b600081519050919050565b600082825260208201905092915050565b60005b83811015612d60578082015181840152602081019050612d45565b83811115612d6f576000848401525b50505050565b6000601f19601f8301169050919050565b6000612d9182612d26565b612d9b8185612d31565b9350612dab818560208601612d42565b612db481612d75565b840191505092915050565b60006020820190508181036000830152612dd98184612d86565b905092915050565b600080fd5b7f4e487b7100000000000000000000000000000000000000000000000000000000600052604160045260246000fd5b612e1e82612d75565b810181811067ffffffffffffffff82111715612e3d57612e3c612de6565b5b80604052505050565b6000612e50612b2c565b9050612e5c8282612e15565b919050565b600067ffffffffffffffff821115612e7c57612e7b612de6565b5b602082029050602081019050919050565b600080fd5b6000612ea5612ea084612e61565b612e46565b90508083825260208201905060208402830185811115612ec857612ec7612e8d565b5b835b81811015612ef15780612edd8882612bbf565b845260208401935050602081019050612eca565b5050509392505050565b600082601f830112612f1057612f0f612de1565b5b8135612f20848260208601612e92565b91505092915050565b600080fd5b600067ffffffffffffffff821115612f4957612f48612de6565b5b612f5282612d75565b9050602081019050919050565b82818337600083830152505050565b6000612f81612f7c84612f2e565b612e46565b905082815260208101848484011115612f9d57612f9c612f29565b5b612fa8848285612f5f565b509392505050565b600082601f830112612fc557612fc4612de1565b5b8135612fd5848260208601612f6e565b91505092915050565b600067ffffffffffffffff821115612ff957612ff8612de6565b5b602082029050602081019050919050565b600067ffffffffffffffff82111561302557613024612de6565b5b61302e82612d75565b9050602081019050919050565b600061304e6130498461300a565b612e46565b90508281526020810184848401111561306a57613069612f29565b5b613075848285612f5f565b509392505050565b600082601f83011261309257613091612de1565b5b81356130a284826020860161303b565b91505092915050565b60006130be6130b984612fde565b612e46565b905080838252602082019050602084028301858111156130e1576130e0612e8d565b5b835b8181101561312857803567ffffffffffffffff81111561310657613105612de1565b5b808601613113898261307d565b855260208501945050506020810190506130e3565b5050509392505050565b600082601f83011261314757613146612de1565b5b81356131578482602086016130ab565b91505092915050565b600080600080600060a0868803121561317c5761317b612b36565b5b600061318a88828901612b89565b955050602086013567ffffffffffffffff8111156131ab576131aa612b3b565b5b6131b788828901612efb565b945050604086013567ffffffffffffffff8111156131d8576131d7612b3b565b5b6131e488828901612efb565b935050606086013567ffffffffffffffff81111561320557613204612b3b565b5b61321188828901612fb0565b925050608086013567ffffffffffffffff81111561323257613231612b3b565b5b61323e88828901613132565b9150509295509295909350565b600080600080600060a0868803121561326757613266612b36565b5b600061327588828901612b89565b955050602061328688828901612b89565b945050604086013567ffffffffffffffff8111156132a7576132a6612b3b565b5b6132b388828901612efb565b935050606086013567ffffffffffffffff8111156132d4576132d3612b3b565b5b6132e088828901612efb565b925050608086013567ffffffffffffffff81111561330157613300612b3b565b5b61330d88828901612fb0565b9150509295509295909350565b600067ffffffffffffffff82111561333557613334612de6565b5b602082029050602081019050919050565b60006133596133548461331a565b612e46565b9050808382526020820190506020840283018581111561337c5761337b612e8d565b5b835b818110156133a557806133918882612b89565b84526020840193505060208101905061337e565b5050509392505050565b600082601f8301126133c4576133c3612de1565b5b81356133d4848260208601613346565b91505092915050565b600080604083850312156133f4576133f3612b36565b5b600083013567ffffffffffffffff81111561341257613411612b3b565b5b61341e858286016133af565b925050602083013567ffffffffffffffff81111561343f5761343e612b3b565b5b61344b85828601612efb565b9150509250929050565b600081519050919050565b600082825260208201905092915050565b6000819050602082019050919050565b61348a81612b9e565b82525050565b600061349c8383613481565b60208301905092915050565b6000602082019050919050565b60006134c082613455565b6134ca8185613460565b93506134d583613471565b8060005b838110156135065781516134ed8882613490565b97506134f8836134a8565b9250506001810190506134d9565b5085935050505092915050565b6000602082019050818103600083015261352d81846134b5565b905092915050565b60008060006060848603121561354e5761354d612b36565b5b600061355c86828701612b89565b935050602084013567ffffffffffffffff81111561357d5761357c612b3b565b5b61358986828701612efb565b925050604084013567ffffffffffffffff8111156135aa576135a9612b3b565b5b6135b686828701612efb565b9150509250925092565b6135c981612b60565b82525050565b60006020820190506135e460008301846135c0565b92915050565b6135f381612cc3565b81146135fe57600080fd5b50565b600081359050613610816135ea565b92915050565b6000806040838503121561362d5761362c612b36565b5b600061363b85828601612b89565b925050602061364c85828601613601565b9150509250929050565b6000806040838503121561366d5761366c612b36565b5b600061367b85828601612bbf565b925050602061368c85828601612bbf565b9150509250929050565b600080604083850312156136ad576136ac612b36565b5b60006136bb85828601612b89565b92505060206136cc85828601612b89565b9150509250929050565b600080600080600060a086880312156136f2576136f1612b36565b5b600061370088828901612b89565b955050602061371188828901612b89565b945050604061372288828901612bbf565b935050606061373388828901612bbf565b925050608086013567ffffffffffffffff81111561375457613753612b3b565b5b61376088828901612fb0565b9150509295509295909350565b60006020828403121561378357613782612b36565b5b600061379184828501612b89565b91505092915050565b600080600080600060a086880312156137b6576137b5612b36565b5b60006137c488828901612b89565b95505060206137d588828901612bbf565b94505060406137e688828901612bbf565b935050606086013567ffffffffffffffff81111561380757613806612b3b565b5b61381388828901612fb0565b925050608086013567ffffffffffffffff81111561383457613833612b3b565b5b6138408882890161307d565b9150509295509295909350565b7f455243313135353a2062616c616e636520717565727920666f7220746865207a60008201527f65726f2061646472657373000000000000000000000000000000000000000000602082015250565b60006138a9602b83612d31565b91506138b48261384d565b604082019050919050565b600060208201905081810360008301526138d88161389c565b9050919050565b7f4f776e61626c653a2063616c6c6572206973206e6f7420746865206f776e6572600082015250565b6000613915602083612d31565b9150613920826138df565b602082019050919050565b6000602082019050818103600083015261394481613908565b9050919050565b7f455243313135353a206d696e7420746f20746865207a65726f2061646472657360008201527f7300000000000000000000000000000000000000000000000000000000000000602082015250565b60006139a7602183612d31565b91506139b28261394b565b604082019050919050565b600060208201905081810360008301526139d68161399a565b9050919050565b7f455243313135353a2069647320616e6420616d6f756e7473206c656e6774682060008201527f6d69736d61746368000000000000000000000000000000000000000000000000602082015250565b6000613a39602883612d31565b9150613a44826139dd565b604082019050919050565b60006020820190508181036000830152613a6881613a2c565b9050919050565b7f4e487b7100000000000000000000000000000000000000000000000000000000600052603260045260246000fd5b7f416c7265616479204d696e746564000000000000000000000000000000000000600082015250565b6000613ad4600e83612d31565b9150613adf82613a9e565b602082019050919050565b60006020820190508181036000830152613b0381613ac7565b9050919050565b7f4e487b7100000000000000000000000000000000000000000000000000000000600052601160045260246000fd5b6000613b4482612b9e565b91507fffffffffffffffffffffffffffffffffffffffffffffffffffffffffffffffff8203613b7657613b75613b0a565b5b600182019050919050565b7f416d6f756e742073686f756c6420626520310000000000000000000000000000600082015250565b6000613bb7601283612d31565b9150613bc282613b81565b602082019050919050565b60006020820190508181036000830152613be681613baa565b9050919050565b6000613bf882612b9e565b9150613c0383612b9e565b9250827fffffffffffffffffffffffffffffffffffffffffffffffffffffffffffffffff03821115613c3857613c37613b0a565b5b828201905092915050565b60006040820190508181036000830152613c5d81856134b5565b90508181036020830152613c7181846134b5565b90509392505050565b7f455243313135353a207472616e736665722063616c6c6572206973206e6f742060008201527f6f776e6572206e6f7220617070726f7665640000000000000000000000000000602082015250565b6000613cd6603283612d31565b9150613ce182613c7a565b604082019050919050565b60006020820190508181036000830152613d0581613cc9565b9050919050565b7f455243313135353a206163636f756e747320616e6420696473206c656e67746860008201527f206d69736d617463680000000000000000000000000000000000000000000000602082015250565b6000613d68602983612d31565b9150613d7382613d0c565b604082019050919050565b60006020820190508181036000830152613d9781613d5b565b9050919050565b7f596f7520646f6e27742068617665207065726d697373696f6e20746f20756e6c60008201527f6f636b0000000000000000000000000000000000000000000000000000000000602082015250565b6000613dfa602383612d31565b9150613e0582613d9e565b604082019050919050565b60006020820190508181036000830152613e2981613ded565b9050919050565b7f436f6e7472616374206973206c6f636b656420756e74696c2037206461797300600082015250565b6000613e66601f83612d31565b9150613e7182613e30565b602082019050919050565b60006020820190508181036000830152613e9581613e59565b9050919050565b7f455243313135353a2063616c6c6572206973206e6f74206f776e6572206e6f7260008201527f20617070726f7665640000000000000000000000000000000000000000000000602082015250565b6000613ef8602983612d31565b9150613f0382613e9c565b604082019050919050565b60006020820190508181036000830152613f2781613eeb565b9050919050565b7f4f776e61626c653a206e6577206f776e657220697320746865207a65726f206160008201527f6464726573730000000000000000000000000000000000000000000000000000602082015250565b6000613f8a602683612d31565b9150613f9582613f2e565b604082019050919050565b60006020820190508181036000830152613fb981613f7d565b9050919050565b7f496e76616c696420555249000000000000000000000000000000000000000000600082015250565b6000613ff6600b83612d31565b915061400182613fc0565b602082019050919050565b6000602082019050818103600083015261402581613fe9565b9050919050565b60006040820190506140416000830185612c14565b61404e6020830184612c14565b9392505050565b7f4e487b7100000000000000000000000000000000000000000000000000000000600052602260045260246000fd5b6000600282049050600182168061409c57607f821691505b6020821081036140af576140ae614055565b5b50919050565b600081519050919050565b600082825260208201905092915050565b60006140dc826140b5565b6140e681856140c0565b93506140f6818560208601612d42565b6140ff81612d75565b840191505092915050565b600060a08201905061411f60008301886135c0565b61412c60208301876135c0565b818103604083015261413e81866134b5565b9050818103606083015261415281856134b5565b9050818103608083015261416681846140d1565b90509695505050505050565b60008151905061418181612c6a565b92915050565b60006020828403121561419d5761419c612b36565b5b60006141ab84828501614172565b91505092915050565b60008160e01c9050919050565b600060033d11156141e05760046000803e6141dd6000516141b4565b90505b90565b600060443d10614270576141f5612b2c565b60043d036004823e80513d602482011167ffffffffffffffff8211171561421d575050614270565b808201805167ffffffffffffffff81111561423b5750505050614270565b80602083010160043d038501811115614258575050505050614270565b61426782602001850186612e15565b82955050505050505b90565b7f455243313135353a207472616e7366657220746f206e6f6e204552433131353560008201527f526563656976657220696d706c656d656e746572000000000000000000000000602082015250565b60006142cf603483612d31565b91506142da82614273565b604082019050919050565b600060208201905081810360008301526142fe816142c2565b9050919050565b7f455243313135353a204552433131353552656365697665722072656a6563746560008201527f6420746f6b656e73000000000000000000000000000000000000000000000000602082015250565b6000614361602883612d31565b915061436c82614305565b604082019050919050565b6000602082019050818103600083015261439081614354565b9050919050565b7f455243313135353a207472616e7366657220746f20746865207a65726f20616460008201527f6472657373000000000000000000000000000000000000000000000000000000602082015250565b60006143f3602583612d31565b91506143fe82614397565b604082019050919050565b60006020820190508181036000830152614422816143e6565b9050919050565b7f455243313135353a20696e73756666696369656e742062616c616e636520666f60008201527f72207472616e7366657200000000000000000000000000000000000000000000602082015250565b6000614485602a83612d31565b915061449082614429565b604082019050919050565b600060208201905081810360008301526144b481614478565b9050919050565b7f455243313135353a206275726e2066726f6d20746865207a65726f206164647260008201527f6573730000000000000000000000000000000000000000000000000000000000602082015250565b6000614517602383612d31565b9150614522826144bb565b604082019050919050565b600060208201905081810360008301526145468161450a565b9050919050565b7f455243313135353a206275726e20616d6f756e7420657863656564732062616c60008201527f616e636500000000000000000000000000000000000000000000000000000000602082015250565b60006145a9602483612d31565b91506145b48261454d565b604082019050919050565b600060208201905081810360008301526145d88161459c565b9050919050565b60006145ea82612b9e565b91506145f583612b9e565b92508282101561460857614607613b0a565b5b828203905092915050565b7f455243313135353a2073657474696e6720617070726f76616c2073746174757360008201527f20666f722073656c660000000000000000000000000000000000000000000000602082015250565b600061466f602983612d31565b915061467a82614613565b604082019050919050565b6000602082019050818103600083015261469e81614662565b9050919050565b600060a0820190506146ba60008301886135c0565b6146c760208301876135c0565b6146d46040830186612c14565b6146e16060830185612c14565b81810360808301526146f381846140d1565b9050969550505050505056fea2646970667358221220252e85b0420d255e5c498adfcd804268e9528c57059aaee1afffc8d815dc9be564736f6c634300080d0033",
  "linkReferences": {},
  "deployedLinkReferences": {}
}